{
  "_format": "hh-sol-artifact-1",
  "contractName": "NFTRental",
  "sourceName": "contracts/nftRental.sol",
  "abi": [
    {
      "anonymous": false,
      "inputs": [],
      "name": "NFTCollateralClaimed",
      "type": "event"
    },
    {
      "anonymous": false,
      "inputs": [],
      "name": "NFTLended",
      "type": "event"
    },
    {
      "anonymous": false,
      "inputs": [],
      "name": "NFTRented",
      "type": "event"
    },
    {
      "anonymous": false,
      "inputs": [],
      "name": "NFTReturned",
      "type": "event"
    },
    {
      "anonymous": false,
      "inputs": [],
      "name": "NFTStopLended",
      "type": "event"
    },
    {
      "inputs": [
        {
          "internalType": "string",
          "name": "_nftKey",
          "type": "string"
        },
        {
          "internalType": "address",
          "name": "_nftOwner",
          "type": "address"
        },
        {
          "internalType": "address",
          "name": "_nftAddress",
          "type": "address"
        },
        {
          "internalType": "uint256",
          "name": "_nftId",
          "type": "uint256"
        },
        {
          "internalType": "string",
          "name": "_nftName",
          "type": "string"
        },
        {
          "internalType": "string",
          "name": "_nftImageURL",
          "type": "string"
        },
        {
          "internalType": "address",
          "name": "_lenderAddress",
          "type": "address"
        },
        {
          "internalType": "uint32",
          "name": "_dueDate",
          "type": "uint32"
        },
        {
          "internalType": "uint256",
          "name": "_dailyRent",
          "type": "uint256"
        },
        {
          "internalType": "uint256",
          "name": "_collateral",
          "type": "uint256"
        }
      ],
      "name": "addNFTToLend",
      "outputs": [],
      "stateMutability": "payable",
      "type": "function"
    },
    {
      "inputs": [
        {
          "internalType": "address",
          "name": "_userAddress",
          "type": "address"
        }
      ],
      "name": "addUser",
      "outputs": [],
      "stateMutability": "nonpayable",
      "type": "function"
    },
    {
      "inputs": [
        {
          "internalType": "address",
          "name": "",
          "type": "address"
        }
      ],
      "name": "addressToUser",
      "outputs": [
        {
          "internalType": "address",
          "name": "userAddress",
          "type": "address"
        }
      ],
      "stateMutability": "view",
      "type": "function"
    },
    {
      "inputs": [
        {
          "internalType": "string",
          "name": "_nftKey",
          "type": "string"
        }
      ],
      "name": "claimCollateral",
      "outputs": [],
      "stateMutability": "nonpayable",
      "type": "function"
    },
    {
      "inputs": [],
      "name": "getContractBalance",
      "outputs": [
        {
          "internalType": "uint256",
          "name": "",
          "type": "uint256"
        }
      ],
      "stateMutability": "view",
      "type": "function"
    },
    {
      "inputs": [],
      "name": "getNftKeysListAvaiableForRent",
      "outputs": [
        {
          "internalType": "string[]",
          "name": "",
          "type": "string[]"
        }
      ],
      "stateMutability": "view",
      "type": "function"
    },
    {
      "inputs": [],
      "name": "getUserAddressList",
      "outputs": [
        {
          "internalType": "address[]",
          "name": "",
          "type": "address[]"
        }
      ],
      "stateMutability": "view",
      "type": "function"
    },
    {
      "inputs": [
        {
          "internalType": "address",
          "name": "_userAddress",
          "type": "address"
        },
        {
          "internalType": "string",
          "name": "_nftKey",
          "type": "string"
        }
      ],
      "name": "getUserLendedNFTDetails",
      "outputs": [
        {
          "components": [
            {
              "internalType": "string",
              "name": "nftKey",
              "type": "string"
            },
            {
              "internalType": "address",
              "name": "lenderAddress",
              "type": "address"
            },
            {
              "internalType": "address",
              "name": "borrowerAddress",
              "type": "address"
            },
            {
              "internalType": "uint32",
              "name": "dueDate",
              "type": "uint32"
            },
            {
              "internalType": "uint256",
              "name": "dailyRent",
              "type": "uint256"
            },
            {
              "internalType": "uint256",
              "name": "collateral",
              "type": "uint256"
            }
          ],
          "internalType": "struct NFTRental.lendedNFT",
          "name": "",
          "type": "tuple"
        }
      ],
      "stateMutability": "view",
      "type": "function"
    },
    {
      "inputs": [
        {
          "internalType": "address",
          "name": "_userAddress",
          "type": "address"
        },
        {
          "internalType": "uint256",
          "name": "_index",
          "type": "uint256"
        }
      ],
      "name": "getUserLendedNFTListDetails",
      "outputs": [
        {
          "internalType": "string",
          "name": "",
          "type": "string"
        }
      ],
      "stateMutability": "view",
      "type": "function"
    },
    {
      "inputs": [
        {
          "internalType": "address",
          "name": "_userAddress",
          "type": "address"
        },
        {
          "internalType": "string",
          "name": "_nftKey",
          "type": "string"
        }
      ],
      "name": "getUserRentedNFTDetails",
      "outputs": [
        {
          "components": [
            {
              "internalType": "string",
              "name": "nftKey",
              "type": "string"
            },
            {
              "internalType": "address",
              "name": "lenderAddress",
              "type": "address"
            },
            {
              "internalType": "address",
              "name": "borrowerAddress",
              "type": "address"
            },
            {
              "internalType": "uint16",
              "name": "numberOfDays",
              "type": "uint16"
            },
            {
              "internalType": "uint32",
              "name": "rentalStartTime",
              "type": "uint32"
            }
          ],
          "internalType": "struct NFTRental.rentedNFT",
          "name": "",
          "type": "tuple"
        }
      ],
      "stateMutability": "view",
      "type": "function"
    },
    {
      "inputs": [
        {
          "internalType": "address",
          "name": "_userAddress",
          "type": "address"
        },
        {
          "internalType": "uint256",
          "name": "_index",
          "type": "uint256"
        }
      ],
      "name": "getUserRentedNFTListDetails",
      "outputs": [
        {
          "internalType": "string",
          "name": "",
          "type": "string"
        }
      ],
      "stateMutability": "view",
      "type": "function"
    },
    {
      "inputs": [
        {
          "internalType": "string",
          "name": "",
          "type": "string"
        }
      ],
      "name": "nftKeyToLendedNftDetails",
      "outputs": [
        {
          "internalType": "string",
          "name": "nftKey",
          "type": "string"
        },
        {
          "internalType": "address",
          "name": "lenderAddress",
          "type": "address"
        },
        {
          "internalType": "address",
          "name": "borrowerAddress",
          "type": "address"
        },
        {
          "internalType": "uint32",
          "name": "dueDate",
          "type": "uint32"
        },
        {
          "internalType": "uint256",
          "name": "dailyRent",
          "type": "uint256"
        },
        {
          "internalType": "uint256",
          "name": "collateral",
          "type": "uint256"
        }
      ],
      "stateMutability": "view",
      "type": "function"
    },
    {
      "inputs": [
        {
          "internalType": "string",
          "name": "",
          "type": "string"
        }
      ],
      "name": "nftKeyToNftProps",
      "outputs": [
        {
          "internalType": "string",
          "name": "nftKey",
          "type": "string"
        },
        {
          "internalType": "address",
          "name": "nftOwner",
          "type": "address"
        },
        {
          "internalType": "address",
          "name": "nftAddress",
          "type": "address"
        },
        {
          "internalType": "uint256",
          "name": "nftId",
          "type": "uint256"
        },
        {
          "internalType": "string",
          "name": "nftName",
          "type": "string"
        },
        {
          "internalType": "string",
          "name": "nftImageURL",
          "type": "string"
        }
      ],
      "stateMutability": "view",
      "type": "function"
    },
    {
      "inputs": [
        {
          "internalType": "string",
          "name": "",
          "type": "string"
        }
      ],
      "name": "nftKeyToRentedNftDetails",
      "outputs": [
        {
          "internalType": "string",
          "name": "nftKey",
          "type": "string"
        },
        {
          "internalType": "address",
          "name": "lenderAddress",
          "type": "address"
        },
        {
          "internalType": "address",
          "name": "borrowerAddress",
          "type": "address"
        },
        {
          "internalType": "uint16",
          "name": "numberOfDays",
          "type": "uint16"
        },
        {
          "internalType": "uint32",
          "name": "rentalStartTime",
          "type": "uint32"
        }
      ],
      "stateMutability": "view",
      "type": "function"
    },
    {
      "inputs": [
        {
          "internalType": "address",
          "name": "",
          "type": "address"
        },
        {
          "internalType": "address",
          "name": "",
          "type": "address"
        },
        {
          "internalType": "uint256",
          "name": "",
          "type": "uint256"
        },
        {
          "internalType": "bytes",
          "name": "",
          "type": "bytes"
        }
      ],
      "name": "onERC721Received",
      "outputs": [
        {
          "internalType": "bytes4",
          "name": "",
          "type": "bytes4"
        }
      ],
      "stateMutability": "nonpayable",
      "type": "function"
    },
    {
      "inputs": [
        {
          "internalType": "string",
          "name": "_nftKey",
          "type": "string"
        },
        {
          "internalType": "address",
          "name": "_borrowerAddress",
          "type": "address"
        },
        {
          "internalType": "uint16",
          "name": "_numberOfDays",
          "type": "uint16"
        },
        {
          "internalType": "uint32",
          "name": "_rentalStartTime",
          "type": "uint32"
        }
      ],
      "name": "rentNft",
      "outputs": [],
      "stateMutability": "payable",
      "type": "function"
    },
    {
      "inputs": [
        {
          "internalType": "string",
          "name": "_nftKey",
          "type": "string"
        }
      ],
      "name": "returnNFT",
      "outputs": [],
      "stateMutability": "nonpayable",
      "type": "function"
    },
    {
      "inputs": [
        {
          "internalType": "string",
          "name": "_nftKey",
          "type": "string"
        }
      ],
      "name": "stopLend",
      "outputs": [],
      "stateMutability": "nonpayable",
      "type": "function"
    }
  ],
  "bytecode": "0x608060405234801561001057600080fd5b5061705880620000216000396000f3fe6080604052600436106101095760003560e01c80637f73ef6c11610095578063dc4ace8c11610064578063dc4ace8c146103a7578063deb41216146103d2578063e08b57371461040f578063e287183a14610438578063edf538861461046157610109565b80637f73ef6c146102d05780638d2221d91461030d578063a66a89fd1461034e578063c81e8d861461038b57610109565b8063423fdefb116100dc578063423fdefb146101c85780634df3d7b9146101e45780635289f68a14610221578063657ed37d146102635780636f9fb98a146102a557610109565b8063150b7a021461010e578063213f44ab1461014b578063378a243b14610176578063421b2d8b1461019f575b600080fd5b34801561011a57600080fd5b5061013560048036038101906101309190615079565b61049e565b6040516101429190615137565b60405180910390f35b34801561015757600080fd5b506101606104b2565b60405161016d9190615210565b60405180910390f35b34801561018257600080fd5b5061019d600480360381019061019891906152d3565b610540565b005b3480156101ab57600080fd5b506101c660048036038101906101c1919061531c565b610bfb565b005b6101e260048036038101906101dd91906153bf565b610e5c565b005b3480156101f057600080fd5b5061020b60048036038101906102069190615442565b611052565b6040516102189190615501565b60405180910390f35b34801561022d57600080fd5b50610248600480360381019061024391906152d3565b611294565b60405161025a96959493929190615541565b60405180910390f35b34801561026f57600080fd5b5061028a600480360381019061028591906152d3565b6114be565b60405161029c969594939291906155c6565b60405180910390f35b3480156102b157600080fd5b506102ba6115e8565b6040516102c7919061562e565b60405180910390f35b3480156102dc57600080fd5b506102f760048036038101906102f29190615649565b6115f0565b6040516103049190615783565b60405180910390f35b34801561031957600080fd5b50610334600480360381019061032f91906152d3565b6119a7565b6040516103459594939291906157b4565b60405180910390f35b34801561035a57600080fd5b5061037560048036038101906103709190615442565b611ad9565b6040516103829190615501565b60405180910390f35b6103a560048036038101906103a0919061580e565b611d1b565b005b3480156103b357600080fd5b506103bc6121e3565b6040516103c99190615a03565b60405180910390f35b3480156103de57600080fd5b506103f960048036038101906103f49190615649565b6122bc565b6040516104069190615abd565b60405180910390f35b34801561041b57600080fd5b50610436600480360381019061043191906152d3565b612667565b005b34801561044457600080fd5b5061045f600480360381019061045a91906152d3565b612cd4565b005b34801561046d57600080fd5b506104886004803603810190610483919061531c565b6135a5565b6040516104959190615adf565b60405180910390f35b600063150b7a0260e01b9050949350505050565b6060600080548060200260200160405190810160405280929190818152602001828054801561053657602002820191906000526020600020905b8160009054906101000a900473ffffffffffffffffffffffffffffffffffffffff1673ffffffffffffffffffffffffffffffffffffffff16815260200190600101908083116104ec575b5050505050905090565b610549816135e3565b6000600160003373ffffffffffffffffffffffffffffffffffffffff1673ffffffffffffffffffffffffffffffffffffffff1681526020019081526020016000209050600060058360405161059e9190615b36565b908152602001604051809103902090506000600160008360010160009054906101000a900473ffffffffffffffffffffffffffffffffffffffff1673ffffffffffffffffffffffffffffffffffffffff1673ffffffffffffffffffffffffffffffffffffffff1681526020019081526020016000209050600081600101856040516106299190615b36565b9081526020016040518091039020905060008160040154905060008360000160009054906101000a900473ffffffffffffffffffffffffffffffffffffffff16905060008660000160009054906101000a900473ffffffffffffffffffffffffffffffffffffffff1690506005886040516106a49190615b36565b9081526020016040518091039020600080820160006106c39190614d61565b6001820160006101000a81549073ffffffffffffffffffffffffffffffffffffffff02191690556002820160006101000a81549073ffffffffffffffffffffffffffffffffffffffff02191690556002820160146101000a81549061ffff02191690556002820160166101000a81549063ffffffff02191690555050600061074b8989613a91565b90506107578189613b44565b87600301896040516107699190615b36565b9081526020016040518091039020600080820160006107889190614d61565b6001820160006101000a81549073ffffffffffffffffffffffffffffffffffffffff02191690556002820160006101000a81549073ffffffffffffffffffffffffffffffffffffffff02191690556002820160146101000a81549061ffff02191690556002820160166101000a81549063ffffffff0219169055505060008560020160149054906101000a900463ffffffff1690508063ffffffff16421015610a135760008660020160006101000a81548173ffffffffffffffffffffffffffffffffffffffff021916908373ffffffffffffffffffffffffffffffffffffffff16021790555060006040518060c001604052808c81526020018673ffffffffffffffffffffffffffffffffffffffff168152602001600073ffffffffffffffffffffffffffffffffffffffff1681526020018363ffffffff168152602001886003015481526020018781525090508060048c6040516108e89190615b36565b9081526020016040518091039020600082015181600001908161090b9190615d59565b5060208201518160010160006101000a81548173ffffffffffffffffffffffffffffffffffffffff021916908373ffffffffffffffffffffffffffffffffffffffff16021790555060408201518160020160006101000a81548173ffffffffffffffffffffffffffffffffffffffff021916908373ffffffffffffffffffffffffffffffffffffffff16021790555060608201518160020160146101000a81548163ffffffff021916908363ffffffff1602179055506080820151816003015560a0820151816004015590505060028b908060018154018082558091505060019003906000526020600020016000909190919091509081610a0c9190615d59565b5050610b7c565b6000610a1f8b89613c29565b9050610a2b8189613cdc565b876001018b604051610a3d9190615b36565b908152602001604051809103902060008082016000610a5c9190614d61565b6001820160006101000a81549073ffffffffffffffffffffffffffffffffffffffff02191690556002820160006101000a81549073ffffffffffffffffffffffffffffffffffffffff02191690556002820160146101000a81549063ffffffff021916905560038201600090556004820160009055505060038b604051610ae39190615b36565b908152602001604051809103902060008082016000610b029190614d61565b6001820160006101000a81549073ffffffffffffffffffffffffffffffffffffffff02191690556002820160006101000a81549073ffffffffffffffffffffffffffffffffffffffff02191690556003820160009055600482016000610b689190614d61565b600582016000610b789190614d61565b5050505b8273ffffffffffffffffffffffffffffffffffffffff166108fc869081150290604051600060405180830381858888f19350505050158015610bc2573d6000803e3d6000fd5b507f5762dfb61a8669a649a124998e72cecf9e9bc9d3f30c4c5dbca184ca7a97d6d060405160405180910390a150505050505050505050565b600073ffffffffffffffffffffffffffffffffffffffff168173ffffffffffffffffffffffffffffffffffffffff1603610c6a576040517f08c379a0000000000000000000000000000000000000000000000000000000008152600401610c6190615e77565b60405180910390fd5b8073ffffffffffffffffffffffffffffffffffffffff163373ffffffffffffffffffffffffffffffffffffffff1614610cd8576040517f08c379a0000000000000000000000000000000000000000000000000000000008152600401610ccf90615f09565b60405180910390fd5b600073ffffffffffffffffffffffffffffffffffffffff16600160008373ffffffffffffffffffffffffffffffffffffffff1673ffffffffffffffffffffffffffffffffffffffff16815260200190815260200160002060000160009054906101000a900473ffffffffffffffffffffffffffffffffffffffff1673ffffffffffffffffffffffffffffffffffffffff1603610e59576000600160008373ffffffffffffffffffffffffffffffffffffffff1673ffffffffffffffffffffffffffffffffffffffff1681526020019081526020016000209050818160000160006101000a81548173ffffffffffffffffffffffffffffffffffffffff021916908373ffffffffffffffffffffffffffffffffffffffff1602179055506000829080600181540180825580915050600190039060005260206000200160009091909190916101000a81548173ffffffffffffffffffffffffffffffffffffffff021916908373ffffffffffffffffffffffffffffffffffffffff160217905550505b50565b610e6884848484613dc1565b6000600485604051610e7a9190615b36565b90815260200160405180910390206003015490506000600486604051610ea09190615b36565b908152602001604051809103902060040154905060008461ffff1683610ec69190615f58565b905060008282610ed69190615f9a565b905080341015610f1b576040517f08c379a0000000000000000000000000000000000000000000000000000000008152600401610f1290616040565b60405180910390fd5b6000600489604051610f2d9190615b36565b908152602001604051809103902060010160009054906101000a900473ffffffffffffffffffffffffffffffffffffffff169050610f6d8989898961415c565b81341115610fce5760008890508073ffffffffffffffffffffffffffffffffffffffff166108fc8434610fa09190616060565b9081150290604051600060405180830381858888f19350505050158015610fcb573d6000803e3d6000fd5b50505b60008190508073ffffffffffffffffffffffffffffffffffffffff166108fc859081150290604051600060405180830381858888f19350505050158015611019573d6000803e3d6000fd5b507fe85b6202f15dfae39a54e501b5e65cbcc44a996fb8d14f843c7cb8e16fd49c7460405160405180910390a150505050505050505050565b6060600073ffffffffffffffffffffffffffffffffffffffff168373ffffffffffffffffffffffffffffffffffffffff16036110c3576040517f08c379a00000000000000000000000000000000000000000000000000000000081526004016110ba90615e77565b60405180910390fd5b6000600160008573ffffffffffffffffffffffffffffffffffffffff1673ffffffffffffffffffffffffffffffffffffffff1681526020019081526020016000209050600073ffffffffffffffffffffffffffffffffffffffff168160000160009054906101000a900473ffffffffffffffffffffffffffffffffffffffff1673ffffffffffffffffffffffffffffffffffffffff1603611199576040517f08c379a0000000000000000000000000000000000000000000000000000000008152600401611190906160e0565b60405180910390fd5b806004018054905083106111e2576040517f08c379a00000000000000000000000000000000000000000000000000000000081526004016111d990616172565b60405180910390fd5b8060040183815481106111f8576111f7616192565b5b90600052602060002001805461120d90615b7c565b80601f016020809104026020016040519081016040528092919081815260200182805461123990615b7c565b80156112865780601f1061125b57610100808354040283529160200191611286565b820191906000526020600020905b81548152906001019060200180831161126957829003601f168201915b505050505091505092915050565b6003818051602081018201805184825260208301602085012081835280955050505050506000915090508060000180546112cd90615b7c565b80601f01602080910402602001604051908101604052809291908181526020018280546112f990615b7c565b80156113465780601f1061131b57610100808354040283529160200191611346565b820191906000526020600020905b81548152906001019060200180831161132957829003601f168201915b5050505050908060010160009054906101000a900473ffffffffffffffffffffffffffffffffffffffff16908060020160009054906101000a900473ffffffffffffffffffffffffffffffffffffffff16908060030154908060040180546113ad90615b7c565b80601f01602080910402602001604051908101604052809291908181526020018280546113d990615b7c565b80156114265780601f106113fb57610100808354040283529160200191611426565b820191906000526020600020905b81548152906001019060200180831161140957829003601f168201915b50505050509080600501805461143b90615b7c565b80601f016020809104026020016040519081016040528092919081815260200182805461146790615b7c565b80156114b45780601f10611489576101008083540402835291602001916114b4565b820191906000526020600020905b81548152906001019060200180831161149757829003601f168201915b5050505050905086565b6004818051602081018201805184825260208301602085012081835280955050505050506000915090508060000180546114f790615b7c565b80601f016020809104026020016040519081016040528092919081815260200182805461152390615b7c565b80156115705780601f1061154557610100808354040283529160200191611570565b820191906000526020600020905b81548152906001019060200180831161155357829003601f168201915b5050505050908060010160009054906101000a900473ffffffffffffffffffffffffffffffffffffffff16908060020160009054906101000a900473ffffffffffffffffffffffffffffffffffffffff16908060020160149054906101000a900463ffffffff16908060030154908060040154905086565b600047905090565b6115f8614da1565b600073ffffffffffffffffffffffffffffffffffffffff168373ffffffffffffffffffffffffffffffffffffffff1603611667576040517f08c379a000000000000000000000000000000000000000000000000000000000815260040161165e90615e77565b60405180910390fd5b6000600160008573ffffffffffffffffffffffffffffffffffffffff1673ffffffffffffffffffffffffffffffffffffffff1681526020019081526020016000209050600073ffffffffffffffffffffffffffffffffffffffff168160000160009054906101000a900473ffffffffffffffffffffffffffffffffffffffff1673ffffffffffffffffffffffffffffffffffffffff160361173d576040517f08c379a0000000000000000000000000000000000000000000000000000000008152600401611734906160e0565b60405180910390fd5b600073ffffffffffffffffffffffffffffffffffffffff1681600301846040516117679190615b36565b908152602001604051809103902060020160009054906101000a900473ffffffffffffffffffffffffffffffffffffffff1673ffffffffffffffffffffffffffffffffffffffff16036117ef576040517f08c379a00000000000000000000000000000000000000000000000000000000081526004016117e690616233565b60405180910390fd5b80600301836040516118019190615b36565b90815260200160405180910390206040518060a001604052908160008201805461182a90615b7c565b80601f016020809104026020016040519081016040528092919081815260200182805461185690615b7c565b80156118a35780601f10611878576101008083540402835291602001916118a3565b820191906000526020600020905b81548152906001019060200180831161188657829003601f168201915b505050505081526020016001820160009054906101000a900473ffffffffffffffffffffffffffffffffffffffff1673ffffffffffffffffffffffffffffffffffffffff1673ffffffffffffffffffffffffffffffffffffffff1681526020016002820160009054906101000a900473ffffffffffffffffffffffffffffffffffffffff1673ffffffffffffffffffffffffffffffffffffffff1673ffffffffffffffffffffffffffffffffffffffff1681526020016002820160149054906101000a900461ffff1661ffff1661ffff1681526020016002820160169054906101000a900463ffffffff1663ffffffff1663ffffffff168152505091505092915050565b6005818051602081018201805184825260208301602085012081835280955050505050506000915090508060000180546119e090615b7c565b80601f0160208091040260200160405190810160405280929190818152602001828054611a0c90615b7c565b8015611a595780601f10611a2e57610100808354040283529160200191611a59565b820191906000526020600020905b815481529060010190602001808311611a3c57829003601f168201915b5050505050908060010160009054906101000a900473ffffffffffffffffffffffffffffffffffffffff16908060020160009054906101000a900473ffffffffffffffffffffffffffffffffffffffff16908060020160149054906101000a900461ffff16908060020160169054906101000a900463ffffffff16905085565b6060600073ffffffffffffffffffffffffffffffffffffffff168373ffffffffffffffffffffffffffffffffffffffff1603611b4a576040517f08c379a0000000000000000000000000000000000000000000000000000000008152600401611b4190615e77565b60405180910390fd5b6000600160008573ffffffffffffffffffffffffffffffffffffffff1673ffffffffffffffffffffffffffffffffffffffff1681526020019081526020016000209050600073ffffffffffffffffffffffffffffffffffffffff168160000160009054906101000a900473ffffffffffffffffffffffffffffffffffffffff1673ffffffffffffffffffffffffffffffffffffffff1603611c20576040517f08c379a0000000000000000000000000000000000000000000000000000000008152600401611c17906160e0565b60405180910390fd5b80600201805490508310611c69576040517f08c379a0000000000000000000000000000000000000000000000000000000008152600401611c6090616172565b60405180910390fd5b806002018381548110611c7f57611c7e616192565b5b906000526020600020018054611c9490615b7c565b80601f0160208091040260200160405190810160405280929190818152602001828054611cc090615b7c565b8015611d0d5780601f10611ce257610100808354040283529160200191611d0d565b820191906000526020600020905b815481529060010190602001808311611cf057829003601f168201915b505050505091505092915050565b8373ffffffffffffffffffffffffffffffffffffffff163373ffffffffffffffffffffffffffffffffffffffff1614611d89576040517f08c379a0000000000000000000000000000000000000000000000000000000008152600401611d809061629f565b60405180910390fd5b600073ffffffffffffffffffffffffffffffffffffffff16600160008673ffffffffffffffffffffffffffffffffffffffff1673ffffffffffffffffffffffffffffffffffffffff16815260200190815260200160002060000160009054906101000a900473ffffffffffffffffffffffffffffffffffffffff1673ffffffffffffffffffffffffffffffffffffffff1603611e5a576040517f08c379a0000000000000000000000000000000000000000000000000000000008152600401611e519061630b565b60405180910390fd5b600073ffffffffffffffffffffffffffffffffffffffff1660038b604051611e829190615b36565b908152602001604051809103902060020160009054906101000a900473ffffffffffffffffffffffffffffffffffffffff1673ffffffffffffffffffffffffffffffffffffffff1614611f0a576040517f08c379a0000000000000000000000000000000000000000000000000000000008152600401611f019061639d565b60405180910390fd5b600073ffffffffffffffffffffffffffffffffffffffff1660048b604051611f329190615b36565b908152602001604051809103902060010160009054906101000a900473ffffffffffffffffffffffffffffffffffffffff1673ffffffffffffffffffffffffffffffffffffffff1614611fba576040517f08c379a0000000000000000000000000000000000000000000000000000000008152600401611fb19061639d565b60405180910390fd5b8373ffffffffffffffffffffffffffffffffffffffff168973ffffffffffffffffffffffffffffffffffffffff1614612028576040517f08c379a000000000000000000000000000000000000000000000000000000000815260040161201f90616409565b60405180910390fd5b428363ffffffff1611612070576040517f08c379a000000000000000000000000000000000000000000000000000000000815260040161206790616475565b60405180910390fd5b60006040518060c001604052808c81526020018b73ffffffffffffffffffffffffffffffffffffffff1681526020018a73ffffffffffffffffffffffffffffffffffffffff1681526020018981526020018881526020018781525090508060038c6040516120de9190615b36565b908152602001604051809103902060008201518160000190816121019190615d59565b5060208201518160010160006101000a81548173ffffffffffffffffffffffffffffffffffffffff021916908373ffffffffffffffffffffffffffffffffffffffff16021790555060408201518160020160006101000a81548173ffffffffffffffffffffffffffffffffffffffff021916908373ffffffffffffffffffffffffffffffffffffffff1602179055506060820151816003015560808201518160040190816121af9190615d59565b5060a08201518160050190816121c59190615d59565b509050506121d68b8686868661488d565b5050505050505050505050565b60606002805480602002602001604051908101604052809291908181526020016000905b828210156122b357838290600052602060002001805461222690615b7c565b80601f016020809104026020016040519081016040528092919081815260200182805461225290615b7c565b801561229f5780601f106122745761010080835404028352916020019161229f565b820191906000526020600020905b81548152906001019060200180831161228257829003601f168201915b505050505081526020019060010190612207565b50505050905090565b6122c4614e06565b600073ffffffffffffffffffffffffffffffffffffffff168373ffffffffffffffffffffffffffffffffffffffff1603612333576040517f08c379a000000000000000000000000000000000000000000000000000000000815260040161232a90615e77565b60405180910390fd5b6000600160008573ffffffffffffffffffffffffffffffffffffffff1673ffffffffffffffffffffffffffffffffffffffff1681526020019081526020016000209050600073ffffffffffffffffffffffffffffffffffffffff168160000160009054906101000a900473ffffffffffffffffffffffffffffffffffffffff1673ffffffffffffffffffffffffffffffffffffffff1603612409576040517f08c379a0000000000000000000000000000000000000000000000000000000008152600401612400906160e0565b60405180910390fd5b600073ffffffffffffffffffffffffffffffffffffffff1681600101846040516124339190615b36565b908152602001604051809103902060010160009054906101000a900473ffffffffffffffffffffffffffffffffffffffff1673ffffffffffffffffffffffffffffffffffffffff16036124bb576040517f08c379a00000000000000000000000000000000000000000000000000000000081526004016124b290616507565b60405180910390fd5b80600101836040516124cd9190615b36565b90815260200160405180910390206040518060c00160405290816000820180546124f690615b7c565b80601f016020809104026020016040519081016040528092919081815260200182805461252290615b7c565b801561256f5780601f106125445761010080835404028352916020019161256f565b820191906000526020600020905b81548152906001019060200180831161255257829003601f168201915b505050505081526020016001820160009054906101000a900473ffffffffffffffffffffffffffffffffffffffff1673ffffffffffffffffffffffffffffffffffffffff1673ffffffffffffffffffffffffffffffffffffffff1681526020016002820160009054906101000a900473ffffffffffffffffffffffffffffffffffffffff1673ffffffffffffffffffffffffffffffffffffffff1673ffffffffffffffffffffffffffffffffffffffff1681526020016002820160149054906101000a900463ffffffff1663ffffffff1663ffffffff1681526020016003820154815260200160048201548152505091505092915050565b6000600160003373ffffffffffffffffffffffffffffffffffffffff1673ffffffffffffffffffffffffffffffffffffffff1681526020019081526020016000209050600073ffffffffffffffffffffffffffffffffffffffff168160000160009054906101000a900473ffffffffffffffffffffffffffffffffffffffff1673ffffffffffffffffffffffffffffffffffffffff160361273d576040517f08c379a0000000000000000000000000000000000000000000000000000000008152600401612734906160e0565b60405180910390fd5b600060038360405161274f9190615b36565b90815260200160405180910390209050600073ffffffffffffffffffffffffffffffffffffffff168160020160009054906101000a900473ffffffffffffffffffffffffffffffffffffffff1673ffffffffffffffffffffffffffffffffffffffff16036127f2576040517f08c379a00000000000000000000000000000000000000000000000000000000081526004016127e990616573565b60405180910390fd5b60006004846040516128049190615b36565b90815260200160405180910390209050600073ffffffffffffffffffffffffffffffffffffffff168160010160009054906101000a900473ffffffffffffffffffffffffffffffffffffffff1673ffffffffffffffffffffffffffffffffffffffff16036128a7576040517f08c379a000000000000000000000000000000000000000000000000000000000815260040161289e906165df565b60405180910390fd5b600073ffffffffffffffffffffffffffffffffffffffff168160020160009054906101000a900473ffffffffffffffffffffffffffffffffffffffff1673ffffffffffffffffffffffffffffffffffffffff161461293a576040517f08c379a0000000000000000000000000000000000000000000000000000000008152600401612931906165df565b60405180910390fd5b3373ffffffffffffffffffffffffffffffffffffffff168160010160009054906101000a900473ffffffffffffffffffffffffffffffffffffffff1673ffffffffffffffffffffffffffffffffffffffff16146129cc576040517f08c379a00000000000000000000000000000000000000000000000000000000081526004016129c390616671565b60405180910390fd5b3373ffffffffffffffffffffffffffffffffffffffff1683600101856040516129f59190615b36565b908152602001604051809103902060010160009054906101000a900473ffffffffffffffffffffffffffffffffffffffff1673ffffffffffffffffffffffffffffffffffffffff1614612a7d576040517f08c379a0000000000000000000000000000000000000000000000000000000008152600401612a7490616703565b60405180910390fd5b6000612a8885614bd9565b9050612a9381614c87565b600485604051612aa39190615b36565b908152602001604051809103902060008082016000612ac29190614d61565b6001820160006101000a81549073ffffffffffffffffffffffffffffffffffffffff02191690556002820160006101000a81549073ffffffffffffffffffffffffffffffffffffffff02191690556002820160146101000a81549063ffffffff0219169055600382016000905560048201600090555050600385604051612b499190615b36565b908152602001604051809103902060008082016000612b689190614d61565b6001820160006101000a81549073ffffffffffffffffffffffffffffffffffffffff02191690556002820160006101000a81549073ffffffffffffffffffffffffffffffffffffffff02191690556003820160009055600482016000612bce9190614d61565b600582016000612bde9190614d61565b50506000612bec8686613c29565b9050612bf88186613cdc565b8460010186604051612c0a9190615b36565b908152602001604051809103902060008082016000612c299190614d61565b6001820160006101000a81549073ffffffffffffffffffffffffffffffffffffffff02191690556002820160006101000a81549073ffffffffffffffffffffffffffffffffffffffff02191690556002820160146101000a81549063ffffffff02191690556003820160009055600482016000905550507fe0306ce2bcb4de1bd06e23b7f715b3fdf3ab2c75402eb54e99bd333eb89c8f8960405160405180910390a1505050505050565b6000600160003373ffffffffffffffffffffffffffffffffffffffff1673ffffffffffffffffffffffffffffffffffffffff1681526020019081526020016000209050600073ffffffffffffffffffffffffffffffffffffffff168160000160009054906101000a900473ffffffffffffffffffffffffffffffffffffffff1673ffffffffffffffffffffffffffffffffffffffff1603612daa576040517f08c379a0000000000000000000000000000000000000000000000000000000008152600401612da19061676f565b60405180910390fd5b6000600383604051612dbc9190615b36565b90815260200160405180910390209050600073ffffffffffffffffffffffffffffffffffffffff168160020160009054906101000a900473ffffffffffffffffffffffffffffffffffffffff1673ffffffffffffffffffffffffffffffffffffffff1603612e5f576040517f08c379a0000000000000000000000000000000000000000000000000000000008152600401612e5690616573565b60405180910390fd5b6000600484604051612e719190615b36565b90815260200160405180910390209050600073ffffffffffffffffffffffffffffffffffffffff168160010160009054906101000a900473ffffffffffffffffffffffffffffffffffffffff1673ffffffffffffffffffffffffffffffffffffffff1614612f14576040517f08c379a0000000000000000000000000000000000000000000000000000000008152600401612f0b906167db565b60405180910390fd5b6000600585604051612f269190615b36565b90815260200160405180910390209050600073ffffffffffffffffffffffffffffffffffffffff168160020160009054906101000a900473ffffffffffffffffffffffffffffffffffffffff1673ffffffffffffffffffffffffffffffffffffffff1603612fc9576040517f08c379a0000000000000000000000000000000000000000000000000000000008152600401612fc0906167db565b60405180910390fd5b6000600160008360020160009054906101000a900473ffffffffffffffffffffffffffffffffffffffff1673ffffffffffffffffffffffffffffffffffffffff1673ffffffffffffffffffffffffffffffffffffffff1681526020019081526020016000209050600073ffffffffffffffffffffffffffffffffffffffff168160000160009054906101000a900473ffffffffffffffffffffffffffffffffffffffff1673ffffffffffffffffffffffffffffffffffffffff16036130c3576040517f08c379a00000000000000000000000000000000000000000000000000000000081526004016130ba90616847565b60405180910390fd5b600085600101876040516130d79190615b36565b908152602001604051809103902090503373ffffffffffffffffffffffffffffffffffffffff168160010160009054906101000a900473ffffffffffffffffffffffffffffffffffffffff1673ffffffffffffffffffffffffffffffffffffffff1614613179576040517f08c379a000000000000000000000000000000000000000000000000000000000815260040161317090616703565b60405180910390fd5b60008360020160169054906101000a900463ffffffff1663ffffffff16905060008460020160149054906101000a900461ffff1661ffff169050600062015180826131c49190616867565b63ffffffff16836131d59190615f9a565b9050428110613219576040517f08c379a000000000000000000000000000000000000000000000000000000000815260040161321090616916565b60405180910390fd5b60008460040154905060058b6040516132329190615b36565b9081526020016040518091039020600080820160006132519190614d61565b6001820160006101000a81549073ffffffffffffffffffffffffffffffffffffffff02191690556002820160006101000a81549073ffffffffffffffffffffffffffffffffffffffff02191690556002820160146101000a81549061ffff02191690556002820160166101000a81549063ffffffff0219169055505060038b6040516132dd9190615b36565b9081526020016040518091039020600080820160006132fc9190614d61565b6001820160006101000a81549073ffffffffffffffffffffffffffffffffffffffff02191690556002820160006101000a81549073ffffffffffffffffffffffffffffffffffffffff021916905560038201600090556004820160006133629190614d61565b6005820160006133729190614d61565b505060006133808c8c613c29565b905061338c818c613cdc565b8a6001018c60405161339e9190615b36565b9081526020016040518091039020600080820160006133bd9190614d61565b6001820160006101000a81549073ffffffffffffffffffffffffffffffffffffffff02191690556002820160006101000a81549073ffffffffffffffffffffffffffffffffffffffff02191690556002820160146101000a81549063ffffffff021916905560038201600090556004820160009055505060006134408d89613a91565b905061344c8189613b44565b876003018d60405161345e9190615b36565b90815260200160405180910390206000808201600061347d9190614d61565b6001820160006101000a81549073ffffffffffffffffffffffffffffffffffffffff02191690556002820160006101000a81549073ffffffffffffffffffffffffffffffffffffffff02191690556002820160146101000a81549061ffff02191690556002820160166101000a81549063ffffffff0219169055505060008c60000160009054906101000a900473ffffffffffffffffffffffffffffffffffffffff1690508073ffffffffffffffffffffffffffffffffffffffff166108fc859081150290604051600060405180830381858888f19350505050158015613568573d6000803e3d6000fd5b507f19d743eeac3391625f97989fda0986e3b231edcea866ff523edc642b6a9a6e6860405160405180910390a15050505050505050505050505050565b60016020528060005260406000206000915090508060000160009054906101000a900473ffffffffffffffffffffffffffffffffffffffff16905081565b6000600160003373ffffffffffffffffffffffffffffffffffffffff1673ffffffffffffffffffffffffffffffffffffffff1681526020019081526020016000209050600073ffffffffffffffffffffffffffffffffffffffff168160000160009054906101000a900473ffffffffffffffffffffffffffffffffffffffff1673ffffffffffffffffffffffffffffffffffffffff16036136b9576040517f08c379a00000000000000000000000000000000000000000000000000000000081526004016136b0906160e0565b60405180910390fd5b60006003836040516136cb9190615b36565b90815260200160405180910390209050600073ffffffffffffffffffffffffffffffffffffffff168160020160009054906101000a900473ffffffffffffffffffffffffffffffffffffffff1673ffffffffffffffffffffffffffffffffffffffff160361376e576040517f08c379a000000000000000000000000000000000000000000000000000000000815260040161376590616573565b60405180910390fd5b60006004846040516137809190615b36565b90815260200160405180910390209050600073ffffffffffffffffffffffffffffffffffffffff168160010160009054906101000a900473ffffffffffffffffffffffffffffffffffffffff1673ffffffffffffffffffffffffffffffffffffffff1614613823576040517f08c379a000000000000000000000000000000000000000000000000000000000815260040161381a906167db565b60405180910390fd5b60006005856040516138359190615b36565b90815260200160405180910390209050600073ffffffffffffffffffffffffffffffffffffffff168160020160009054906101000a900473ffffffffffffffffffffffffffffffffffffffff1673ffffffffffffffffffffffffffffffffffffffff16036138d8576040517f08c379a00000000000000000000000000000000000000000000000000000000081526004016138cf906167db565b60405180910390fd5b6000600160008360010160009054906101000a900473ffffffffffffffffffffffffffffffffffffffff1673ffffffffffffffffffffffffffffffffffffffff1673ffffffffffffffffffffffffffffffffffffffff1681526020019081526020016000209050600073ffffffffffffffffffffffffffffffffffffffff168160000160009054906101000a900473ffffffffffffffffffffffffffffffffffffffff1673ffffffffffffffffffffffffffffffffffffffff16036139d2576040517f08c379a00000000000000000000000000000000000000000000000000000000081526004016139c99061676f565b60405180910390fd5b600085600301876040516139e69190615b36565b908152602001604051809103902090503373ffffffffffffffffffffffffffffffffffffffff168160020160009054906101000a900473ffffffffffffffffffffffffffffffffffffffff1673ffffffffffffffffffffffffffffffffffffffff1614613a88576040517f08c379a0000000000000000000000000000000000000000000000000000000008152600401613a7f906169a8565b60405180910390fd5b50505050505050565b6000808260040180549050905060005b81811015613b3857836004018181548110613abf57613abe616192565b5b90600052602060002001604051602001613ad99190616a4b565b6040516020818303038152906040528051906020012085604051602001613b009190615b36565b6040516020818303038152906040528051906020012003613b25578092505050613b3e565b8080613b3090616a62565b915050613aa1565b50809150505b92915050565b80600401805490508210613b8d576040517f08c379a0000000000000000000000000000000000000000000000000000000008152600401613b8490616b1c565b60405180910390fd5b600060018260040180549050613ba39190616060565b9050816004018181548110613bbb57613bba616192565b5b90600052602060002001826004018481548110613bdb57613bda616192565b5b906000526020600020019081613bf19190616b67565b5081600401805480613c0657613c05616c4f565b5b600190038181906000526020600020016000613c229190614d61565b9055505050565b6000808260020180549050905060005b81811015613cd057836002018181548110613c5757613c56616192565b5b90600052602060002001604051602001613c719190616a4b565b6040516020818303038152906040528051906020012085604051602001613c989190615b36565b6040516020818303038152906040528051906020012003613cbd578092505050613cd6565b8080613cc890616a62565b915050613c39565b50809150505b92915050565b80600201805490508210613d25576040517f08c379a0000000000000000000000000000000000000000000000000000000008152600401613d1c90616b1c565b60405180910390fd5b600060018260020180549050613d3b9190616060565b9050816002018181548110613d5357613d52616192565b5b90600052602060002001826002018481548110613d7357613d72616192565b5b906000526020600020019081613d899190616b67565b5081600201805480613d9e57613d9d616c4f565b5b600190038181906000526020600020016000613dba9190614d61565b9055505050565b8273ffffffffffffffffffffffffffffffffffffffff163373ffffffffffffffffffffffffffffffffffffffff1614613e2f576040517f08c379a0000000000000000000000000000000000000000000000000000000008152600401613e2690616cf0565b60405180910390fd5b600073ffffffffffffffffffffffffffffffffffffffff16600160008573ffffffffffffffffffffffffffffffffffffffff1673ffffffffffffffffffffffffffffffffffffffff16815260200190815260200160002060000160009054906101000a900473ffffffffffffffffffffffffffffffffffffffff1673ffffffffffffffffffffffffffffffffffffffff1603613f00576040517f08c379a0000000000000000000000000000000000000000000000000000000008152600401613ef79061630b565b60405180910390fd5b6000600385604051613f129190615b36565b90815260200160405180910390209050600073ffffffffffffffffffffffffffffffffffffffff168160020160009054906101000a900473ffffffffffffffffffffffffffffffffffffffff1673ffffffffffffffffffffffffffffffffffffffff1603613fb5576040517f08c379a0000000000000000000000000000000000000000000000000000000008152600401613fac90616d5c565b60405180910390fd5b600073ffffffffffffffffffffffffffffffffffffffff16600486604051613fdd9190615b36565b908152602001604051809103902060010160009054906101000a900473ffffffffffffffffffffffffffffffffffffffff1673ffffffffffffffffffffffffffffffffffffffff1603614065576040517f08c379a000000000000000000000000000000000000000000000000000000000815260040161405c90616d5c565b60405180910390fd5b428263ffffffff16106140ad576040517f08c379a00000000000000000000000000000000000000000000000000000000081526004016140a490616475565b60405180910390fd5b6000620151808461ffff166140c29190616867565b836140cd9190616d7c565b905060006004876040516140e19190615b36565b908152602001604051809103902060020160149054906101000a900463ffffffff1690508063ffffffff168263ffffffff1610614153576040517f08c379a000000000000000000000000000000000000000000000000000000000815260040161414a90616e4c565b60405180910390fd5b50505050505050565b600060048560405161416e9190615b36565b908152602001604051809103902060010160009054906101000a900473ffffffffffffffffffffffffffffffffffffffff1690508373ffffffffffffffffffffffffffffffffffffffff168173ffffffffffffffffffffffffffffffffffffffff1603614210576040517f08c379a000000000000000000000000000000000000000000000000000000000815260040161420790616ede565b60405180910390fd5b6000600160008373ffffffffffffffffffffffffffffffffffffffff1673ffffffffffffffffffffffffffffffffffffffff1681526020019081526020016000209050600073ffffffffffffffffffffffffffffffffffffffff16816001018760405161427d9190615b36565b908152602001604051809103902060020160009054906101000a900473ffffffffffffffffffffffffffffffffffffffff1673ffffffffffffffffffffffffffffffffffffffff1614614305576040517f08c379a00000000000000000000000000000000000000000000000000000000081526004016142fc90616f70565b60405180910390fd5b8481600101876040516143189190615b36565b908152602001604051809103902060020160006101000a81548173ffffffffffffffffffffffffffffffffffffffff021916908373ffffffffffffffffffffffffffffffffffffffff16021790555060006040518060a001604052808881526020018473ffffffffffffffffffffffffffffffffffffffff1681526020018773ffffffffffffffffffffffffffffffffffffffff1681526020018661ffff1681526020018563ffffffff1681525090506000600160008873ffffffffffffffffffffffffffffffffffffffff1673ffffffffffffffffffffffffffffffffffffffff1681526020019081526020016000209050600073ffffffffffffffffffffffffffffffffffffffff1681600301896040516144359190615b36565b908152602001604051809103902060020160009054906101000a900473ffffffffffffffffffffffffffffffffffffffff1673ffffffffffffffffffffffffffffffffffffffff16146144bd576040517f08c379a00000000000000000000000000000000000000000000000000000000081526004016144b490617002565b60405180910390fd5b8181600301896040516144d09190615b36565b908152602001604051809103902060008201518160000190816144f39190615d59565b5060208201518160010160006101000a81548173ffffffffffffffffffffffffffffffffffffffff021916908373ffffffffffffffffffffffffffffffffffffffff16021790555060408201518160020160006101000a81548173ffffffffffffffffffffffffffffffffffffffff021916908373ffffffffffffffffffffffffffffffffffffffff16021790555060608201518160020160146101000a81548161ffff021916908361ffff16021790555060808201518160020160166101000a81548163ffffffff021916908363ffffffff16021790555090505080600401889080600181540180825580915050600190039060005260206000200160009091909190915090816146059190615d59565b50600073ffffffffffffffffffffffffffffffffffffffff1660058960405161462e9190615b36565b908152602001604051809103902060020160009054906101000a900473ffffffffffffffffffffffffffffffffffffffff1673ffffffffffffffffffffffffffffffffffffffff16146146b6576040517f08c379a00000000000000000000000000000000000000000000000000000000081526004016146ad90617002565b60405180910390fd5b816005896040516146c79190615b36565b908152602001604051809103902060008201518160000190816146ea9190615d59565b5060208201518160010160006101000a81548173ffffffffffffffffffffffffffffffffffffffff021916908373ffffffffffffffffffffffffffffffffffffffff16021790555060408201518160020160006101000a81548173ffffffffffffffffffffffffffffffffffffffff021916908373ffffffffffffffffffffffffffffffffffffffff16021790555060608201518160020160146101000a81548161ffff021916908361ffff16021790555060808201518160020160166101000a81548163ffffffff021916908363ffffffff16021790555090505060006147d189614bd9565b90506147dc81614c87565b6004896040516147ec9190615b36565b90815260200160405180910390206000808201600061480b9190614d61565b6001820160006101000a81549073ffffffffffffffffffffffffffffffffffffffff02191690556002820160006101000a81549073ffffffffffffffffffffffffffffffffffffffff02191690556002820160146101000a81549063ffffffff0219169055600382016000905560048201600090555050505050505050505050565b60006040518060c001604052808781526020018673ffffffffffffffffffffffffffffffffffffffff168152602001600073ffffffffffffffffffffffffffffffffffffffff1681526020018563ffffffff1681526020018481526020018381525090506000600160008773ffffffffffffffffffffffffffffffffffffffff1673ffffffffffffffffffffffffffffffffffffffff16815260200190815260200160002090508181600101886040516149479190615b36565b9081526020016040518091039020600082015181600001908161496a9190615d59565b5060208201518160010160006101000a81548173ffffffffffffffffffffffffffffffffffffffff021916908373ffffffffffffffffffffffffffffffffffffffff16021790555060408201518160020160006101000a81548173ffffffffffffffffffffffffffffffffffffffff021916908373ffffffffffffffffffffffffffffffffffffffff16021790555060608201518160020160146101000a81548163ffffffff021916908363ffffffff1602179055506080820151816003015560a082015181600401559050508060020187908060018154018082558091505060019003906000526020600020016000909190919091509081614a6d9190615d59565b5081600488604051614a7f9190615b36565b90815260200160405180910390206000820151816000019081614aa29190615d59565b5060208201518160010160006101000a81548173ffffffffffffffffffffffffffffffffffffffff021916908373ffffffffffffffffffffffffffffffffffffffff16021790555060408201518160020160006101000a81548173ffffffffffffffffffffffffffffffffffffffff021916908373ffffffffffffffffffffffffffffffffffffffff16021790555060608201518160020160146101000a81548163ffffffff021916908363ffffffff1602179055506080820151816003015560a08201518160040155905050600287908060018154018082558091505060019003906000526020600020016000909190919091509081614ba39190615d59565b507fdb8317522294099fa9360f57f5f2c8178138bbeb092f99c41ada4fefc39fbe5e60405160405180910390a150505050505050565b600080600280549050905060005b81811015614c7c5760028181548110614c0357614c02616192565b5b90600052602060002001604051602001614c1d9190616a4b565b6040516020818303038152906040528051906020012084604051602001614c449190615b36565b6040516020818303038152906040528051906020012003614c69578092505050614c82565b8080614c7490616a62565b915050614be7565b50809150505b919050565b6002805490508110614cce576040517f08c379a0000000000000000000000000000000000000000000000000000000008152600401614cc590616b1c565b60405180910390fd5b60006001600280549050614ce29190616060565b905060028181548110614cf857614cf7616192565b5b9060005260206000200160028381548110614d1657614d15616192565b5b906000526020600020019081614d2c9190616b67565b506002805480614d3f57614d3e616c4f565b5b600190038181906000526020600020016000614d5b9190614d61565b90555050565b508054614d6d90615b7c565b6000825580601f10614d7f5750614d9e565b601f016020900490600052602060002090810190614d9d9190614e6e565b5b50565b6040518060a0016040528060608152602001600073ffffffffffffffffffffffffffffffffffffffff168152602001600073ffffffffffffffffffffffffffffffffffffffff168152602001600061ffff168152602001600063ffffffff1681525090565b6040518060c0016040528060608152602001600073ffffffffffffffffffffffffffffffffffffffff168152602001600073ffffffffffffffffffffffffffffffffffffffff168152602001600063ffffffff16815260200160008152602001600081525090565b5b80821115614e87576000816000905550600101614e6f565b5090565b6000604051905090565b600080fd5b600080fd5b600073ffffffffffffffffffffffffffffffffffffffff82169050919050565b6000614eca82614e9f565b9050919050565b614eda81614ebf565b8114614ee557600080fd5b50565b600081359050614ef781614ed1565b92915050565b6000819050919050565b614f1081614efd565b8114614f1b57600080fd5b50565b600081359050614f2d81614f07565b92915050565b600080fd5b600080fd5b6000601f19601f8301169050919050565b7f4e487b7100000000000000000000000000000000000000000000000000000000600052604160045260246000fd5b614f8682614f3d565b810181811067ffffffffffffffff82111715614fa557614fa4614f4e565b5b80604052505050565b6000614fb8614e8b565b9050614fc48282614f7d565b919050565b600067ffffffffffffffff821115614fe457614fe3614f4e565b5b614fed82614f3d565b9050602081019050919050565b82818337600083830152505050565b600061501c61501784614fc9565b614fae565b90508281526020810184848401111561503857615037614f38565b5b615043848285614ffa565b509392505050565b600082601f8301126150605761505f614f33565b5b8135615070848260208601615009565b91505092915050565b6000806000806080858703121561509357615092614e95565b5b60006150a187828801614ee8565b94505060206150b287828801614ee8565b93505060406150c387828801614f1e565b925050606085013567ffffffffffffffff8111156150e4576150e3614e9a565b5b6150f08782880161504b565b91505092959194509250565b60007fffffffff0000000000000000000000000000000000000000000000000000000082169050919050565b615131816150fc565b82525050565b600060208201905061514c6000830184615128565b92915050565b600081519050919050565b600082825260208201905092915050565b6000819050602082019050919050565b61518781614ebf565b82525050565b6000615199838361517e565b60208301905092915050565b6000602082019050919050565b60006151bd82615152565b6151c7818561515d565b93506151d28361516e565b8060005b838110156152035781516151ea888261518d565b97506151f5836151a5565b9250506001810190506151d6565b5085935050505092915050565b6000602082019050818103600083015261522a81846151b2565b905092915050565b600067ffffffffffffffff82111561524d5761524c614f4e565b5b61525682614f3d565b9050602081019050919050565b600061527661527184615232565b614fae565b90508281526020810184848401111561529257615291614f38565b5b61529d848285614ffa565b509392505050565b600082601f8301126152ba576152b9614f33565b5b81356152ca848260208601615263565b91505092915050565b6000602082840312156152e9576152e8614e95565b5b600082013567ffffffffffffffff81111561530757615306614e9a565b5b615313848285016152a5565b91505092915050565b60006020828403121561533257615331614e95565b5b600061534084828501614ee8565b91505092915050565b600061ffff82169050919050565b61536081615349565b811461536b57600080fd5b50565b60008135905061537d81615357565b92915050565b600063ffffffff82169050919050565b61539c81615383565b81146153a757600080fd5b50565b6000813590506153b981615393565b92915050565b600080600080608085870312156153d9576153d8614e95565b5b600085013567ffffffffffffffff8111156153f7576153f6614e9a565b5b615403878288016152a5565b945050602061541487828801614ee8565b93505060406154258782880161536e565b9250506060615436878288016153aa565b91505092959194509250565b6000806040838503121561545957615458614e95565b5b600061546785828601614ee8565b925050602061547885828601614f1e565b9150509250929050565b600081519050919050565b600082825260208201905092915050565b60005b838110156154bc5780820151818401526020810190506154a1565b60008484015250505050565b60006154d382615482565b6154dd818561548d565b93506154ed81856020860161549e565b6154f681614f3d565b840191505092915050565b6000602082019050818103600083015261551b81846154c8565b905092915050565b61552c81614ebf565b82525050565b61553b81614efd565b82525050565b600060c082019050818103600083015261555b81896154c8565b905061556a6020830188615523565b6155776040830187615523565b6155846060830186615532565b818103608083015261559681856154c8565b905081810360a08301526155aa81846154c8565b9050979650505050505050565b6155c081615383565b82525050565b600060c08201905081810360008301526155e081896154c8565b90506155ef6020830188615523565b6155fc6040830187615523565b61560960608301866155b7565b6156166080830185615532565b61562360a0830184615532565b979650505050505050565b60006020820190506156436000830184615532565b92915050565b600080604083850312156156605761565f614e95565b5b600061566e85828601614ee8565b925050602083013567ffffffffffffffff81111561568f5761568e614e9a565b5b61569b858286016152a5565b9150509250929050565b600082825260208201905092915050565b60006156c182615482565b6156cb81856156a5565b93506156db81856020860161549e565b6156e481614f3d565b840191505092915050565b6156f881615349565b82525050565b61570781615383565b82525050565b600060a083016000830151848203600086015261572a82826156b6565b915050602083015161573f602086018261517e565b506040830151615752604086018261517e565b50606083015161576560608601826156ef565b50608083015161577860808601826156fe565b508091505092915050565b6000602082019050818103600083015261579d818461570d565b905092915050565b6157ae81615349565b82525050565b600060a08201905081810360008301526157ce81886154c8565b90506157dd6020830187615523565b6157ea6040830186615523565b6157f760608301856157a5565b61580460808301846155b7565b9695505050505050565b6000806000806000806000806000806101408b8d03121561583257615831614e95565b5b60008b013567ffffffffffffffff8111156158505761584f614e9a565b5b61585c8d828e016152a5565b9a5050602061586d8d828e01614ee8565b995050604061587e8d828e01614ee8565b985050606061588f8d828e01614f1e565b97505060808b013567ffffffffffffffff8111156158b0576158af614e9a565b5b6158bc8d828e016152a5565b96505060a08b013567ffffffffffffffff8111156158dd576158dc614e9a565b5b6158e98d828e016152a5565b95505060c06158fa8d828e01614ee8565b94505060e061590b8d828e016153aa565b93505061010061591d8d828e01614f1e565b92505061012061592f8d828e01614f1e565b9150509295989b9194979a5092959850565b600081519050919050565b600082825260208201905092915050565b6000819050602082019050919050565b600061597983836156b6565b905092915050565b6000602082019050919050565b600061599982615941565b6159a3818561594c565b9350836020820285016159b58561595d565b8060005b858110156159f157848403895281516159d2858261596d565b94506159dd83615981565b925060208a019950506001810190506159b9565b50829750879550505050505092915050565b60006020820190508181036000830152615a1d818461598e565b905092915050565b615a2e81614efd565b82525050565b600060c0830160008301518482036000860152615a5182826156b6565b9150506020830151615a66602086018261517e565b506040830151615a79604086018261517e565b506060830151615a8c60608601826156fe565b506080830151615a9f6080860182615a25565b5060a0830151615ab260a0860182615a25565b508091505092915050565b60006020820190508181036000830152615ad78184615a34565b905092915050565b6000602082019050615af46000830184615523565b92915050565b600081905092915050565b6000615b1082615482565b615b1a8185615afa565b9350615b2a81856020860161549e565b80840191505092915050565b6000615b428284615b05565b915081905092915050565b7f4e487b7100000000000000000000000000000000000000000000000000000000600052602260045260246000fd5b60006002820490506001821680615b9457607f821691505b602082108103615ba757615ba6615b4d565b5b50919050565b60008190508160005260206000209050919050565b60006020601f8301049050919050565b600082821b905092915050565b600060088302615c0f7fffffffffffffffffffffffffffffffffffffffffffffffffffffffffffffffff82615bd2565b615c198683615bd2565b95508019841693508086168417925050509392505050565b6000819050919050565b6000615c56615c51615c4c84614efd565b615c31565b614efd565b9050919050565b6000819050919050565b615c7083615c3b565b615c84615c7c82615c5d565b848454615bdf565b825550505050565b600090565b615c99615c8c565b615ca4818484615c67565b505050565b5b81811015615cc857615cbd600082615c91565b600181019050615caa565b5050565b601f821115615d0d57615cde81615bad565b615ce784615bc2565b81016020851015615cf6578190505b615d0a615d0285615bc2565b830182615ca9565b50505b505050565b600082821c905092915050565b6000615d3060001984600802615d12565b1980831691505092915050565b6000615d498383615d1f565b9150826002028217905092915050565b615d6282615482565b67ffffffffffffffff811115615d7b57615d7a614f4e565b5b615d858254615b7c565b615d90828285615ccc565b600060209050601f831160018114615dc35760008415615db1578287015190505b615dbb8582615d3d565b865550615e23565b601f198416615dd186615bad565b60005b82811015615df957848901518255600182019150602085019450602081019050615dd4565b86831015615e165784890151615e12601f891682615d1f565b8355505b6001600288020188555050505b505050505050565b7f496e76616c696420616464726573730000000000000000000000000000000000600082015250565b6000615e61600f8361548d565b9150615e6c82615e2b565b602082019050919050565b60006020820190508181036000830152615e9081615e54565b9050919050565b7f4f6e6c792074686520757365722063616e2061646420686973206163636f756e60008201527f7420746f20617070000000000000000000000000000000000000000000000000602082015250565b6000615ef360288361548d565b9150615efe82615e97565b604082019050919050565b60006020820190508181036000830152615f2281615ee6565b9050919050565b7f4e487b7100000000000000000000000000000000000000000000000000000000600052601160045260246000fd5b6000615f6382614efd565b9150615f6e83614efd565b9250828202615f7c81614efd565b91508282048414831517615f9357615f92615f29565b5b5092915050565b6000615fa582614efd565b9150615fb083614efd565b9250828201905080821115615fc857615fc7615f29565b5b92915050565b7f43616e27742072656e74204e465420617320696e73756666696369656e74206160008201527f6d6f756e74207061696400000000000000000000000000000000000000000000602082015250565b600061602a602a8361548d565b915061603582615fce565b604082019050919050565b600060208201905081810360008301526160598161601d565b9050919050565b600061606b82614efd565b915061607683614efd565b925082820390508181111561608e5761608d615f29565b5b92915050565b7f5573657220646f6573206e6f7420657869737473000000000000000000000000600082015250565b60006160ca60148361548d565b91506160d582616094565b602082019050919050565b600060208201905081810360008301526160f9816160bd565b9050919050565b7f4e66742061742074686520676976656e20696e64657820646f6573206e6f742060008201527f6578697374000000000000000000000000000000000000000000000000000000602082015250565b600061615c60258361548d565b915061616782616100565b604082019050919050565b6000602082019050818103600083015261618b8161614f565b9050919050565b7f4e487b7100000000000000000000000000000000000000000000000000000000600052603260045260246000fd5b7f5573657220646f6573206e6f74206861766520616e7920737563682072656e7460008201527f6564204e66740000000000000000000000000000000000000000000000000000602082015250565b600061621d60268361548d565b9150616228826161c1565b604082019050919050565b6000602082019050818103600083015261624c81616210565b9050919050565b7f43616e2774206c656e6420736f6d656f6e6520656c73652773204e4654000000600082015250565b6000616289601d8361548d565b915061629482616253565b602082019050919050565b600060208201905081810360008301526162b88161627c565b9050919050565b7f5573657220646f6573206e6f7420657869737400000000000000000000000000600082015250565b60006162f560138361548d565b9150616300826162bf565b602082019050919050565b60006020820190508181036000830152616324816162e8565b9050919050565b7f4e465420697320616c726561647920617661696c61626c6520666f722072656e60008201527f74696e6700000000000000000000000000000000000000000000000000000000602082015250565b600061638760248361548d565b91506163928261632b565b604082019050919050565b600060208201905081810360008301526163b68161637a565b9050919050565b7f4e6f6e204e4654204f776e657200000000000000000000000000000000000000600082015250565b60006163f3600d8361548d565b91506163fe826163bd565b602082019050919050565b60006020820190508181036000830152616422816163e6565b9050919050565b7f4261642074696d6520626f756e64730000000000000000000000000000000000600082015250565b600061645f600f8361548d565b915061646a82616429565b602082019050919050565b6000602082019050818103600083015261648e81616452565b9050919050565b7f5573657220646f6573206e6f74206861766520616e792073756368206c656e6460008201527f6564204e66740000000000000000000000000000000000000000000000000000602082015250565b60006164f160268361548d565b91506164fc82616495565b604082019050919050565b60006020820190508181036000830152616520816164e4565b9050919050565b7f4e4654206973206e6f7420617661696c61626c65000000000000000000000000600082015250565b600061655d60148361548d565b915061656882616527565b602082019050919050565b6000602082019050818103600083015261658c81616550565b9050919050565b7f4e465420697320616c72656164792072656e7465640000000000000000000000600082015250565b60006165c960158361548d565b91506165d482616593565b602082019050919050565b600060208201905081810360008301526165f8816165bc565b9050919050565b7f43616e27742073746f70206c656e6420736f6d656f6e6520656c73652773204e60008201527f4654000000000000000000000000000000000000000000000000000000000000602082015250565b600061665b60228361548d565b9150616666826165ff565b604082019050919050565b6000602082019050818103600083015261668a8161664e565b9050919050565b7f5573657220646f6573206e6f74206861766520616e792073756368204e46547360008201527f206173206c656e64000000000000000000000000000000000000000000000000602082015250565b60006166ed60288361548d565b91506166f882616691565b604082019050919050565b6000602082019050818103600083015261671c816166e0565b9050919050565b7f4c656e64657220646f6573206e6f742065786973740000000000000000000000600082015250565b600061675960158361548d565b915061676482616723565b602082019050919050565b600060208201905081810360008301526167888161674c565b9050919050565b7f4e4654206973206e6f742072656e746564000000000000000000000000000000600082015250565b60006167c560118361548d565b91506167d08261678f565b602082019050919050565b600060208201905081810360008301526167f4816167b8565b9050919050565b7f426f72726f77657220646f6573206e6f74206578697374000000000000000000600082015250565b600061683160178361548d565b915061683c826167fb565b602082019050919050565b6000602082019050818103600083015261686081616824565b9050919050565b600061687282615383565b915061687d83615383565b925082820261688b81615383565b915080821461689d5761689c615f29565b5b5092915050565b7f43616e277420636c61696d20636f6c6c61746572616c2074696c6c2072656e7460008201527f656420656e642074696d65000000000000000000000000000000000000000000602082015250565b6000616900602b8361548d565b915061690b826168a4565b604082019050919050565b6000602082019050818103600083015261692f816168f3565b9050919050565b7f5573657220646f6573206e6f74206861766520616e792073756368204e46547360008201527f2061732072656e74000000000000000000000000000000000000000000000000602082015250565b600061699260288361548d565b915061699d82616936565b604082019050919050565b600060208201905081810360008301526169c181616985565b9050919050565b600081546169d581615b7c565b6169df8186615afa565b945060018216600081146169fa5760018114616a0f57616a42565b60ff1983168652811515820286019350616a42565b616a1885615bad565b60005b83811015616a3a57815481890152600182019150602081019050616a1b565b838801955050505b50505092915050565b6000616a5782846169c8565b915081905092915050565b6000616a6d82614efd565b91507fffffffffffffffffffffffffffffffffffffffffffffffffffffffffffffffff8203616a9f57616a9e615f29565b5b600182019050919050565b7f4e6674206b6579206e6f7420617661696c61626c6520696e207468652061707060008201527f2072656e74696e67206c69737400000000000000000000000000000000000000602082015250565b6000616b06602d8361548d565b9150616b1182616aaa565b604082019050919050565b60006020820190508181036000830152616b3581616af9565b9050919050565b600081549050616b4b81615b7c565b9050919050565b60008190508160005260206000209050919050565b818103616b75575050616c4d565b616b7e82616b3c565b67ffffffffffffffff811115616b9757616b96614f4e565b5b616ba18254615b7c565b616bac828285615ccc565b6000601f831160018114616bdb5760008415616bc9578287015490505b616bd38582615d3d565b865550616c46565b601f198416616be987616b52565b9650616bf486615bad565b60005b82811015616c1c57848901548255600182019150600185019450602081019050616bf7565b86831015616c395784890154616c35601f891682615d1f565b8355505b6001600288020188555050505b5050505050505b565b7f4e487b7100000000000000000000000000000000000000000000000000000000600052603160045260246000fd5b7f43616e277420626f72726f77204e465420666f7220616e6f7468657220626f7260008201527f726f776572206164647265737300000000000000000000000000000000000000602082015250565b6000616cda602d8361548d565b9150616ce582616c7e565b604082019050919050565b60006020820190508181036000830152616d0981616ccd565b9050919050565b7f4e4654206973206e6f7420617661696c61626c6520666f722072656e74696e67600082015250565b6000616d4660208361548d565b9150616d5182616d10565b602082019050919050565b60006020820190508181036000830152616d7581616d39565b9050919050565b6000616d8782615383565b9150616d9283615383565b9250828201905063ffffffff811115616dae57616dad615f29565b5b92915050565b7f43616e27742072656e74204e465420666f72206d6f7265207468616e20616d6f60008201527f756e74206f662074696d6520617661696c61626c6520666f722072656e74696e60208201527f6700000000000000000000000000000000000000000000000000000000000000604082015250565b6000616e3660418361548d565b9150616e4182616db4565b606082019050919050565b60006020820190508181036000830152616e6581616e29565b9050919050565b7f426f72726f77657220616464726573732063616e27742062652074686520736160008201527f6d65206173206c656e6465722061646472657373000000000000000000000000602082015250565b6000616ec860348361548d565b9150616ed382616e6c565b604082019050919050565b60006020820190508181036000830152616ef781616ebb565b9050919050565b7f4e465420616c72656164792072656e74656420627920736f6d656f6e6520656c60008201527f7365000000000000000000000000000000000000000000000000000000000000602082015250565b6000616f5a60228361548d565b9150616f6582616efe565b604082019050919050565b60006020820190508181036000830152616f8981616f4d565b9050919050565b7f4e667420697320616c72656164792070726573656e7420696e2075736572207260008201527f656e746564204e66747300000000000000000000000000000000000000000000602082015250565b6000616fec602a8361548d565b9150616ff782616f90565b604082019050919050565b6000602082019050818103600083015261701b81616fdf565b905091905056fea26469706673582212202a38ebc361f7ed9f09eb97ded8c798cb67e27994cb01290aea67bf001eb24e6164736f6c63430008110033",
  "linkReferences": {},
  "deployedLinkReferences": {}
}